:100000000C9434000C9451000C9451000C94510049
:100010000C9451000C9451000C9451000C9451001C
:100020000C9451000C9451000C9451000C9451000C
:100030000C9451000C94C2010C9451000C9451008A
:100040000C9451000C9451000C9451000C945100EC
:100050000C9451000C9451000C9451000C945100DC
:100060000C9451000C94510011241FBECFEFD8E026
:10007000DEBFCDBF11E0A0E0B1E0E2EAF4E002C0F3
:1000800005900D92A231B107D9F711E0A2E1B1E0DC
:1000900001C01D92AC35B107E1F70E94C6000C9477
:1000A0004F020C94000080FF02C02A9A01C02A98D7
:1000B00081FF02C05A9A01C05A9882FF02C02D9A4D
:1000C00001C02D9883FF02C05D9A08955D98089540
:1000D00083B180958170199B82604F9B84604E9B99
:1000E00088600895EF92FF921F93CF93DF93EC0106
:1000F00010E082EEE82E84E0F82E0E946800182BB3
:10010000F7013197F1F72597C530D10520F011237C
:10011000A1F3882391F7812FDF91CF911F91FF9059
:10012000EF9008951F93182F81E090E0012E02C0F8
:10013000880F991F0A94E2F70E945300E12FF0E024
:10014000EE0FFF1FEE0FFF1FEF5FFE4F6281738107
:10015000808191810E94270280E00E9453001F91BC
:1001600008951F9310911701173460F0812F90E0CC
:1001700066E070E041EB50E00E94F60111501093F0
:10018000170102C00E941F021F9108958CEF84B9CD
:100190008EE38AB983E085B980EC8BB981E085BDB7
:1001A00086E08093B1007894F9E14F2EE4E16E2E61
:1001B0007FE0572E69E1E62EF12C54E2A52E54EF94
:1001C000B52E4CE7842E42E9942E31E0C32ED12C7B
:1001D0002AEF722E11E0812F0E94530084E690E0F6
:1001E0000E947200082F183011F411E001C0110FA5
:1001F000002389F380E00E9453000E946800082BCE
:100200008823D9F7802F902F917001FD9F5F82FD89
:100210009F5F83FD9F5F923019F45092000109C0E7
:10022000933019F46092000104C0943011F44092AC
:1002300000018FE00E94530080E197E2F7013197BF
:10024000F1F70197D9F780E00E945300C5010197AB
:10025000F1F7109216011091160180911201909100
:10026000130166B568277091B20079278091140157
:100270009091150125E33EE44AE551E00E943002E9
:100280006F5F7F4F8F4F9F4F6093120170931301E9
:100290008093140190931501E12FF0E0E85EFE4F8A
:1002A000892F837080831F5F1093160110E00BC0AD
:1002B000E12FF0E0E85EFE4F80810E949200C401D1
:1002C0000197F1F71F5F80911601181788F310E06E
:1002D00018C088EB9BE00E947200E12FF0E0E85E1E
:1002E000FE4FE08190E096010E2E02C0220F331FD8
:1002F0000A94E2F78217930761F58E2F0E9492000D
:100300001F5F90911601191720F337C080E197E223
:10031000F7013197F1F70197D9F79DCFC0E0D0E011
:10032000C0FD02C086E001C089E00E9453007092C7
:1003300017010E94B10080916F0080FDFCCF2196D3
:10034000C430D10569F7809100018F5F809300016F
:1003500041CFC0E0D0E0C0FD02C083E001C08CE02E
:100360000E9453008CED95E066EA70E00E9427023F
:100370002196C430D10579F72DCF809100019817CF
:1003800029F6CCCF1F920F920FB60F9211242F9304
:100390003F934F935F936F937F938F939F93AF930D
:1003A000BF93EF93FF934B9A4C9A80915A0190918F
:1003B0005B01019790935B0180935A01892B29F48B
:1003C000E0915801F09159010995FF91EF91BF918A
:1003D000AF919F918F917F916F915F914F913F91DD
:1003E0002F910F900FBE0F901F9018959C01809138
:1003F0006F0080FD0CC083E08093800089E18093D2
:10040000810010928500109284005B985C9A809124
:100410006F008E7F80936F00309389002093880057
:1004200070935B0160935A015093590140935801B6
:10043000B09A80916F00816080936F000895EFE61D
:10044000F0E080818E7F80835B985C9808954FE117
:1004500052E00E94F60180916F0080FDFCCF08956C
:10046000629FD001739FF001829FE00DF11D649F98
:10047000E00DF11D929FF00D839FF00D749FF00D24
:10048000659FF00D9927729FB00DE11DF91F639FC5
:10049000B00DE11DF91FBD01CF0111240895F8949D
:0204A000FFCF8C
:1004A2000570048400380208015303B0007D02EB9A
:0204B200000048
:00000001FF
