:100000000C9434000C9451000C9451000C94510049
:100010000C9451000C9451000C9451000C9451001C
:100020000C9451000C9451000C9451000C9451000C
:100030000C9451000C9496000C9451000C945100B7
:100040000C9451000C9451000C9451000C945100EC
:100050000C9451000C9451000C9451000C945100DC
:100060000C9451000C94510011241FBECFEFD8E026
:10007000DEBFCDBF11E0A0E0B1E0E4E7F4E002C0F4
:1000800005900D92A231B107D9F711E0A2E1B1E0DC
:1000900001C01D92AA35B107E1F70E940D010C9431
:1000A00038020C94000080FF02C02A9A01C02A98EE
:1000B00081FF02C05A9A01C05A9882FF02C02D9A4D
:1000C00001C02D9883FF02C05D9A08955D98089540
:1000D00083B180958170199B82604F9B84604E9B99
:1000E000886008955B985C9A109285001092840055
:1000F0000895EFE6F0E020812E7F20839093890021
:1001000080938800709318016093170181E08093B9
:100110005901B09A8081816080830895EFE6F0E014
:1001200080818E7F80835B985C9808951F920F92E8
:100130000FB60F9211248F939F93809159018823BA
:1001400079F04B9A4C9A8091170190911801019780
:100150009093180180931701892B11F41092590183
:100160009F918F910F900FBE0F901F901895EF9257
:10017000FF921F93CF93DF93EC0110E082EEE82E05
:1001800084E0F82E0E946800182BF7013197F1F7F0
:100190002597C530D10520F01123A1F3882391F7CD
:1001A000812FDF91CF911F91FF90EF900895EF92F3
:1001B000FF920F931F938C017B010E947200C80174
:1001C000B7010E947900809159018823E1F70E94CC
:1001D0008E001F910F91FF90EF9008951F93182F9D
:1001E00081E090E0012E02C0880F991F0A94E2F787
:1001F0000E945300E12FF0E0EE0FFF1FEE0FFF1FF4
:10020000EF5FFE4F62817381808191810E94D700F0
:1002100080E00E9453001F9108958CEF84B98EE313
:100220008AB993E095B980EC8BB981E085BD86E011
:100230008093B1009093800089E18093810078944D
:10024000E9E17E2E74E1672E6FE0562E59E1E52E2E
:10025000F12C44E2842E44EF942E3CE7A32E32E9A5
:10026000B32E21E0C22ED12C11E0812F0E94530029
:1002700084E690E00E94B700082F183011F411E0D6
:1002800001C0110F002389F380E00E9453000E94F7
:100290006800082B8823D9F7802F902F917001FDDB
:1002A0009F5F82FD9F5F83FD9F5F923019F45092A4
:1002B000000109C0933019F46092000104C0943029
:1002C00011F4709200018FE00E94530080E197E2E8
:1002D000F7013197F1F70197D9F780E00E945300B9
:1002E000C4010197F1F71092160110911601809147
:1002F00012019091130166B568277091B2007927B9
:10030000809114019091150125E33EE44AE551E006
:100310000E9419026F5F7F4F8F4F9F4F60931201B2
:10032000709313018093140190931501E12FF0E075
:10033000E75EFE4F892F837080831F5F1093160145
:1003400010E00BC0E12FF0E0E75EFE4F80810E94DD
:10035000EE00C5010197F1F71F5F80911601181794
:1003600088F310E018C088EB9BE00E94B700E12FF3
:10037000F0E0E75EFE4FE08190E096010E2E02C0B5
:10038000220F331F0A94E2F782179307A1F58E2FED
:100390000E94EE001F5F90911601191720F33FC0D5
:1003A00080E197E2F7013197F1F70197D9F79DCFF7
:1003B00000FD02C086E001C089E00E945300CAEF40
:1003C000D0E0CE0166E070E00E9479008091590192
:1003D0008823E1F72197C634D10599F70F5F1F4FA6
:1003E0000430110529F70E948E00809100018F5F73
:1003F0008093000139CFC0E0D0E0C0FD02C083E0AF
:1004000001C08CE00E9453008CED95E066EA70E03C
:100410000E94D7002196C430D10579F725CF80916D
:100420000001981709F0BCCF0E94720000E010E0B4
:10043000BFCF629FD001739FF001829FE00DF11D3D
:10044000649FE00DF11D929FF00D839FF00D749F4E
:10045000F00D659FF00D9927729FB00DE11DF91FFA
:10046000639FB00DE11DF91FBD01CF011124089557
:04047000F894FFCF2E
:100474000570048400380208015303B0007D02EBC8
:02048400000076
:00000001FF
